{
  "_format": "hh-sol-artifact-1",
  "contractName": "Greeter",
  "sourceName": "contracts/Greeter.sol",
  "abi": [
    {
      "inputs": [],
      "name": "buyIn",
      "outputs": [],
      "stateMutability": "payable",
      "type": "function"
    },
    {
      "inputs": [],
      "name": "getBalance",
      "outputs": [
        {
          "internalType": "uint256",
          "name": "",
          "type": "uint256"
        }
      ],
      "stateMutability": "view",
      "type": "function"
    },
    {
      "stateMutability": "payable",
      "type": "receive"
    }
  ],
  "bytecode": "0x608060405234801561001057600080fd5b5060e58061001f6000396000f3fe60806040526004361060295760003560e01c806312065fe014603457806353aab43414605a57602f565b36602f57005b600080fd5b348015603f57600080fd5b5060466062565b60405160519190608c565b60405180910390f35b6060606a565b005b600047905090565b670de0b6b3a76400003414607d57600080fd5b565b60868160a5565b82525050565b6000602082019050609f6000830184607f565b92915050565b600081905091905056fea2646970667358221220fc2909b2210eb3816f47b7f4c8cc17b8753642a03ac28a464ab6234802c22b8164736f6c63430008030033",
  "linkReferences": {},
  "deployedLinkReferences": {}
}